{
  "_format": "hh-sol-artifact-1",
  "contractName": "Fair",
  "sourceName": "contracts/Fair.sol",
  "abi": [
    {
      "inputs": [
        {
          "internalType": "address",
          "name": "_wallet",
          "type": "address"
        },
        {
          "internalType": "uint16",
          "name": "_feePercent",
          "type": "uint16"
        },
        {
          "internalType": "uint16",
          "name": "_timeToFinish",
          "type": "uint16"
        },
        {
          "internalType": "uint16",
          "name": "_userGamesToReturnNumber",
          "type": "uint16"
        }
      ],
      "stateMutability": "nonpayable",
      "type": "constructor"
    },
    {
      "anonymous": false,
      "inputs": [
        {
          "indexed": false,
          "internalType": "uint256",
          "name": "gameId",
          "type": "uint256"
        },
        {
          "indexed": false,
          "internalType": "uint256",
          "name": "bid",
          "type": "uint256"
        }
      ],
      "name": "CreateGame",
      "type": "event"
    },
    {
      "anonymous": false,
      "inputs": [
        {
          "indexed": false,
          "internalType": "uint256",
          "name": "gameId",
          "type": "uint256"
        },
        {
          "indexed": false,
          "internalType": "address[]",
          "name": "winners",
          "type": "address[]"
        },
        {
          "indexed": false,
          "internalType": "uint256[]",
          "name": "prizes",
          "type": "uint256[]"
        }
      ],
      "name": "FinishGame",
      "type": "event"
    },
    {
      "anonymous": false,
      "inputs": [
        {
          "indexed": true,
          "internalType": "address",
          "name": "previousOwner",
          "type": "address"
        },
        {
          "indexed": true,
          "internalType": "address",
          "name": "newOwner",
          "type": "address"
        }
      ],
      "name": "OwnershipTransferred",
      "type": "event"
    },
    {
      "inputs": [
        {
          "internalType": "uint256",
          "name": "",
          "type": "uint256"
        },
        {
          "internalType": "address",
          "name": "",
          "type": "address"
        }
      ],
      "name": "biddersList",
      "outputs": [
        {
          "internalType": "bool",
          "name": "participatedFlag",
          "type": "bool"
        },
        {
          "internalType": "uint8",
          "name": "number",
          "type": "uint8"
        }
      ],
      "stateMutability": "view",
      "type": "function"
    },
    {
      "inputs": [
        {
          "internalType": "uint256",
          "name": "_gameId",
          "type": "uint256"
        }
      ],
      "name": "claim",
      "outputs": [],
      "stateMutability": "nonpayable",
      "type": "function"
    },
    {
      "inputs": [
        {
          "internalType": "uint8",
          "name": "_number",
          "type": "uint8"
        },
        {
          "internalType": "uint8",
          "name": "_limit",
          "type": "uint8"
        }
      ],
      "name": "createGame",
      "outputs": [],
      "stateMutability": "payable",
      "type": "function"
    },
    {
      "inputs": [],
      "name": "feePercent",
      "outputs": [
        {
          "internalType": "uint16",
          "name": "",
          "type": "uint16"
        }
      ],
      "stateMutability": "view",
      "type": "function"
    },
    {
      "inputs": [
        {
          "internalType": "uint256",
          "name": "_gameId",
          "type": "uint256"
        }
      ],
      "name": "finishGame",
      "outputs": [],
      "stateMutability": "nonpayable",
      "type": "function"
    },
    {
      "inputs": [
        {
          "internalType": "uint256",
          "name": "",
          "type": "uint256"
        }
      ],
      "name": "gamesList",
      "outputs": [
        {
          "internalType": "address",
          "name": "owner",
          "type": "address"
        },
        {
          "internalType": "bool",
          "name": "isFinished",
          "type": "bool"
        },
        {
          "internalType": "uint256",
          "name": "bid",
          "type": "uint256"
        },
        {
          "internalType": "uint256",
          "name": "participantsLimit",
          "type": "uint256"
        },
        {
          "internalType": "uint256",
          "name": "createdTimestamp",
          "type": "uint256"
        },
        {
          "internalType": "uint256",
          "name": "pool",
          "type": "uint256"
        },
        {
          "internalType": "uint256",
          "name": "individualPrize",
          "type": "uint256"
        },
        {
          "internalType": "uint8",
          "name": "luckyNumber",
          "type": "uint8"
        }
      ],
      "stateMutability": "view",
      "type": "function"
    },
    {
      "inputs": [],
      "name": "generateRandom",
      "outputs": [
        {
          "internalType": "uint8",
          "name": "",
          "type": "uint8"
        }
      ],
      "stateMutability": "nonpayable",
      "type": "function"
    },
    {
      "inputs": [],
      "name": "getActualGames",
      "outputs": [
        {
          "internalType": "uint256[]",
          "name": "",
          "type": "uint256[]"
        }
      ],
      "stateMutability": "view",
      "type": "function"
    },
    {
      "inputs": [
        {
          "internalType": "uint256",
          "name": "_gameId",
          "type": "uint256"
        },
        {
          "internalType": "address",
          "name": "adr",
          "type": "address"
        }
      ],
      "name": "getBet",
      "outputs": [
        {
          "internalType": "uint8",
          "name": "",
          "type": "uint8"
        }
      ],
      "stateMutability": "view",
      "type": "function"
    },
    {
      "inputs": [
        {
          "internalType": "uint256",
          "name": "_gameId",
          "type": "uint256"
        }
      ],
      "name": "getNumbers",
      "outputs": [
        {
          "internalType": "uint8[]",
          "name": "",
          "type": "uint8[]"
        }
      ],
      "stateMutability": "view",
      "type": "function"
    },
    {
      "inputs": [
        {
          "internalType": "uint256",
          "name": "_gameId",
          "type": "uint256"
        }
      ],
      "name": "getOwner",
      "outputs": [
        {
          "internalType": "address",
          "name": "",
          "type": "address"
        }
      ],
      "stateMutability": "view",
      "type": "function"
    },
    {
      "inputs": [
        {
          "internalType": "uint256",
          "name": "_gameId",
          "type": "uint256"
        }
      ],
      "name": "getPrizes",
      "outputs": [
        {
          "internalType": "uint256[]",
          "name": "",
          "type": "uint256[]"
        },
        {
          "internalType": "address[]",
          "name": "",
          "type": "address[]"
        },
        {
          "internalType": "uint256[]",
          "name": "",
          "type": "uint256[]"
        }
      ],
      "stateMutability": "view",
      "type": "function"
    },
    {
      "inputs": [
        {
          "internalType": "address",
          "name": "_user",
          "type": "address"
        }
      ],
      "name": "getUserGames",
      "outputs": [
        {
          "internalType": "uint256[]",
          "name": "",
          "type": "uint256[]"
        }
      ],
      "stateMutability": "view",
      "type": "function"
    },
    {
      "inputs": [
        {
          "internalType": "uint256",
          "name": "_gameId",
          "type": "uint256"
        },
        {
          "internalType": "uint8",
          "name": "_number",
          "type": "uint8"
        }
      ],
      "name": "joinGame",
      "outputs": [],
      "stateMutability": "payable",
      "type": "function"
    },
    {
      "inputs": [
        {
          "internalType": "uint16",
          "name": "_feePercent",
          "type": "uint16"
        }
      ],
      "name": "newFeePercent",
      "outputs": [],
      "stateMutability": "nonpayable",
      "type": "function"
    },
    {
      "inputs": [
        {
          "internalType": "uint16",
          "name": "_timeToFinish",
          "type": "uint16"
        }
      ],
      "name": "newTimeToFinish",
      "outputs": [],
      "stateMutability": "nonpayable",
      "type": "function"
    },
    {
      "inputs": [
        {
          "internalType": "uint16",
          "name": "_userGamesToReturnNumber",
          "type": "uint16"
        }
      ],
      "name": "newUserGamesToReturnNumber",
      "outputs": [],
      "stateMutability": "nonpayable",
      "type": "function"
    },
    {
      "inputs": [
        {
          "internalType": "address",
          "name": "_wallet",
          "type": "address"
        }
      ],
      "name": "newWallet",
      "outputs": [],
      "stateMutability": "nonpayable",
      "type": "function"
    },
    {
      "inputs": [],
      "name": "owner",
      "outputs": [
        {
          "internalType": "address",
          "name": "",
          "type": "address"
        }
      ],
      "stateMutability": "view",
      "type": "function"
    },
    {
      "inputs": [
        {
          "internalType": "address",
          "name": "",
          "type": "address"
        },
        {
          "internalType": "uint256",
          "name": "",
          "type": "uint256"
        }
      ],
      "name": "prizeList",
      "outputs": [
        {
          "internalType": "bool",
          "name": "isWinner",
          "type": "bool"
        },
        {
          "internalType": "bool",
          "name": "isClaimed",
          "type": "bool"
        },
        {
          "internalType": "uint256",
          "name": "prize",
          "type": "uint256"
        }
      ],
      "stateMutability": "view",
      "type": "function"
    },
    {
      "inputs": [],
      "name": "renounceOwnership",
      "outputs": [],
      "stateMutability": "nonpayable",
      "type": "function"
    },
    {
      "inputs": [],
      "name": "timeToFinish",
      "outputs": [
        {
          "internalType": "uint16",
          "name": "",
          "type": "uint16"
        }
      ],
      "stateMutability": "view",
      "type": "function"
    },
    {
      "inputs": [
        {
          "internalType": "address",
          "name": "newOwner",
          "type": "address"
        }
      ],
      "name": "transferOwnership",
      "outputs": [],
      "stateMutability": "nonpayable",
      "type": "function"
    },
    {
      "inputs": [],
      "name": "userGamesToReturnNumber",
      "outputs": [
        {
          "internalType": "uint16",
          "name": "",
          "type": "uint16"
        }
      ],
      "stateMutability": "view",
      "type": "function"
    },
    {
      "inputs": [],
      "name": "wallet",
      "outputs": [
        {
          "internalType": "address",
          "name": "",
          "type": "address"
        }
      ],
      "stateMutability": "view",
      "type": "function"
    }
  ],
  "bytecode": "0x60806040523480156200001157600080fd5b506040516200543c3803806200543c8339818101604052810190620000379190620003c1565b620000576200004b6200024c60201b60201c565b6200025460201b60201c565b600073ffffffffffffffffffffffffffffffffffffffff168473ffffffffffffffffffffffffffffffffffffffff161415620000ca576040517f08c379a0000000000000000000000000000000000000000000000000000000008152600401620000c19062000494565b60405180910390fd5b6127108361ffff161062000115576040517f08c379a00000000000000000000000000000000000000000000000000000000081526004016200010c9062000506565b60405180910390fd5b60008261ffff16141562000160576040517f08c379a0000000000000000000000000000000000000000000000000000000008152600401620001579062000578565b60405180910390fd5b601e8161ffff161015620001ab576040517f08c379a0000000000000000000000000000000000000000000000000000000008152600401620001a29062000610565b60405180910390fd5b83600460066101000a81548173ffffffffffffffffffffffffffffffffffffffff021916908373ffffffffffffffffffffffffffffffffffffffff16021790555082600460006101000a81548161ffff021916908361ffff16021790555081600460026101000a81548161ffff021916908361ffff160217905550806004806101000a81548161ffff021916908361ffff1602179055505050505062000632565b600033905090565b60008060009054906101000a900473ffffffffffffffffffffffffffffffffffffffff169050816000806101000a81548173ffffffffffffffffffffffffffffffffffffffff021916908373ffffffffffffffffffffffffffffffffffffffff1602179055508173ffffffffffffffffffffffffffffffffffffffff168173ffffffffffffffffffffffffffffffffffffffff167f8be0079c531659141344cd1fd0a4f28419497f9722a3daafe3b4186f6b6457e060405160405180910390a35050565b600080fd5b600073ffffffffffffffffffffffffffffffffffffffff82169050919050565b60006200034a826200031d565b9050919050565b6200035c816200033d565b81146200036857600080fd5b50565b6000815190506200037c8162000351565b92915050565b600061ffff82169050919050565b6200039b8162000382565b8114620003a757600080fd5b50565b600081519050620003bb8162000390565b92915050565b60008060008060808587031215620003de57620003dd62000318565b5b6000620003ee878288016200036b565b94505060206200040187828801620003aa565b93505060406200041487828801620003aa565b92505060606200042787828801620003aa565b91505092959194509250565b600082825260208201905092915050565b7f57616c6c65742069732061646472657373283029000000000000000000000000600082015250565b60006200047c60148362000433565b9150620004898262000444565b602082019050919050565b60006020820190508181036000830152620004af816200046d565b9050919050565b7f4665652070657263656e74206973206d6f7265207468616e2031303030300000600082015250565b6000620004ee601e8362000433565b9150620004fb82620004b6565b602082019050919050565b600060208201905081810360008301526200052181620004df565b9050919050565b7f54696d6520746f2066696e69736820697320657175616c20746f203000000000600082015250565b600062000560601c8362000433565b91506200056d8262000528565b602082019050919050565b60006020820190508181036000830152620005938162000551565b9050919050565b7f5573657247616d6573546f52657475726e4e756d626572206861766520746f2060008201527f6265206d6f7265207468616e2033300000000000000000000000000000000000602082015250565b6000620005f8602f8362000433565b915062000605826200059a565b604082019050919050565b600060208201905081810360008301526200062b81620005e9565b9050919050565b614dfa80620006426000396000f3fe6080604052600436106101665760003560e01c8063631b02bd116100d1578063c41a360a1161008a578063cfe186b211610064578063cfe186b214610542578063e0950ddf1461056b578063e8d95ad3146105a8578063f2fde38b146105d157610166565b8063c41a360a146104aa578063ca6649c5146104e7578063cc3077951461050357610166565b8063631b02bd146103aa578063715018a6146103d55780637fd6f15c146103ec5780638da5cb5b146104175780639ff0f4a914610442578063bda6688f1461048157610166565b8063379607f511610123578063379607f514610283578063493ab058146102ac5780634a7b26ae146102d55780634bb0826f146103125780635054c0a31461033b578063521eb2731461037f57610166565b806302e4af011461016b578063120aace6146101965780631346a76d146101d357806313bf83c5146101ef57806316466fe61461021a578063208970d514610245575b600080fd5b34801561017757600080fd5b506101806105fa565b60405161018d9190613702565b60405180910390f35b3480156101a257600080fd5b506101bd60048036038101906101b89190613780565b61065a565b6040516101ca9190613875565b60405180910390f35b6101ed60048036038101906101e891906138c3565b610cf5565b005b3480156101fb57600080fd5b50610204611115565b6040516102119190613920565b60405180910390f35b34801561022657600080fd5b5061022f611129565b60405161023c9190613875565b60405180910390f35b34801561025157600080fd5b5061026c60048036038101906102679190613967565b61132d565b60405161027a9291906139c2565b60405180910390f35b34801561028f57600080fd5b506102aa60048036038101906102a591906139eb565b611378565b005b3480156102b857600080fd5b506102d360048036038101906102ce9190613a44565b611721565b005b3480156102e157600080fd5b506102fc60048036038101906102f791906139eb565b611791565b6040516103099190613b2f565b60405180910390f35b34801561031e57600080fd5b5061033960048036038101906103349190613a44565b611825565b005b34801561034757600080fd5b50610362600480360381019061035d91906139eb565b611894565b604051610376989796959493929190613b6f565b60405180910390f35b34801561038b57600080fd5b50610394611916565b6040516103a19190613bed565b60405180910390f35b3480156103b657600080fd5b506103bf61193c565b6040516103cc9190613920565b60405180910390f35b3480156103e157600080fd5b506103ea61194e565b005b3480156103f857600080fd5b50610401611962565b60405161040e9190613920565b60405180910390f35b34801561042357600080fd5b5061042c611976565b6040516104399190613bed565b60405180910390f35b34801561044e57600080fd5b5061046960048036038101906104649190613c08565b61199f565b60405161047893929190613c48565b60405180910390f35b34801561048d57600080fd5b506104a860048036038101906104a39190613780565b6119f0565b005b3480156104b657600080fd5b506104d160048036038101906104cc91906139eb565b611aac565b6040516104de9190613bed565b60405180910390f35b61050160048036038101906104fc9190613c7f565b611aec565b005b34801561050f57600080fd5b5061052a600480360381019061052591906139eb565b612037565b60405161053993929190613d7d565b60405180910390f35b34801561054e57600080fd5b50610569600480360381019061056491906139eb565b612427565b005b34801561057757600080fd5b50610592600480360381019061058d9190613967565b61343d565b60405161059f9190613702565b60405180910390f35b3480156105b457600080fd5b506105cf60048036038101906105ca9190613a44565b6134a8565b005b3480156105dd57600080fd5b506105f860048036038101906105f39190613780565b613518565b005b6000806065423360025460405160200161061693929190613e32565b6040516020818303038152906040528051906020012060001c6106399190613e9e565b90506002600081548092919061064e90613efe565b91905055508091505090565b60606000806000601e600860008773ffffffffffffffffffffffffffffffffffffffff1673ffffffffffffffffffffffffffffffffffffffff168152602001908152602001600020600001805490501061077d5760048054906101000a900461ffff1661ffff16600860008773ffffffffffffffffffffffffffffffffffffffff1673ffffffffffffffffffffffffffffffffffffffff168152602001908152602001600020600001805490506107119190613f47565b600860048054906101000a900461ffff1661072c9190613f7b565b61ffff1667ffffffffffffffff81111561074957610748613fb7565b5b6040519080825280602002602001820160405280156107775781602001602082028036833780820191505090505b50610819565b600060088060008873ffffffffffffffffffffffffffffffffffffffff1673ffffffffffffffffffffffffffffffffffffffff168152602001908152602001600020600001805490506107d09190613fe6565b67ffffffffffffffff8111156107e9576107e8613fb7565b5b6040519080825280602002602001820160405280156108175781602001602082028036833780820191505090505b505b915091505b600860008673ffffffffffffffffffffffffffffffffffffffff1673ffffffffffffffffffffffffffffffffffffffff16815260200190815260200160002060000180549050821015610cea576000600860008773ffffffffffffffffffffffffffffffffffffffff1673ffffffffffffffffffffffffffffffffffffffff16815260200190815260200160002060000183815481106108c1576108c0614040565b5b9060005260206000200154905060066000828152602001908152602001600020600101548285815181106108f8576108f7614040565b5b602002602001018181525050600660008281526020019081526020016000206005015482600186610929919061406f565b8151811061093a57610939614040565b5b60200260200101818152505060066000828152602001908152602001600020600201805490508260028661096e919061406f565b8151811061097f5761097e614040565b5b602002602001018181525050808260048661099a919061406f565b815181106109ab576109aa614040565b5b6020026020010181815250506006600082815260200190815260200160002060060154826005866109dc919061406f565b815181106109ed576109ec614040565b5b6020026020010181815250506006600082815260200190815260200160002060080160009054906101000a900460ff1660ff1682600686610a2e919061406f565b81518110610a3f57610a3e614040565b5b602002602001018181525050600960008773ffffffffffffffffffffffffffffffffffffffff1673ffffffffffffffffffffffffffffffffffffffff16815260200190815260200160002060008281526020019081526020016000206001015482600786610aad919061406f565b81518110610abe57610abd614040565b5b602002602001018181525050600960008773ffffffffffffffffffffffffffffffffffffffff1673ffffffffffffffffffffffffffffffffffffffff168152602001908152602001600020600082815260200190815260200160002060000160019054906101000a900460ff1615610b6257600082600386610b40919061406f565b81518110610b5157610b50614040565b5b602002602001018181525050610cc7565b600960008773ffffffffffffffffffffffffffffffffffffffff1673ffffffffffffffffffffffffffffffffffffffff168152602001908152602001600020600082815260200190815260200160002060000160009054906101000a900460ff1615610bfa57600182600386610bd8919061406f565b81518110610be957610be8614040565b5b602002602001018181525050610cc6565b6006600082815260200190815260200160002060000160149054906101000a900460ff16158015610c605750600460029054906101000a900461ffff1661ffff166006600083815260200190815260200160002060050154610c5c919061406f565b4210155b15610c9757600282600386610c75919061406f565b81518110610c8657610c85614040565b5b602002602001018181525050610cc5565b600382600386610ca7919061406f565b81518110610cb857610cb7614040565b5b6020026020010181815250505b5b5b600884610cd4919061406f565b9350508180610ce290613efe565b92505061081e565b809350505050919050565b8160008160ff1610158015610d0e575060648160ff1611155b610d4d576040517f08c379a0000000000000000000000000000000000000000000000000000000008152600401610d4490614122565b60405180910390fd5b60003411610d90576040517f08c379a0000000000000000000000000000000000000000000000000000000008152600401610d87906141b4565b60405180910390fd5b3360066000600154815260200190815260200160002060000160006101000a81548173ffffffffffffffffffffffffffffffffffffffff021916908373ffffffffffffffffffffffffffffffffffffffff160217905550346006600060015481526020019081526020016000206006016000828254610e0f919061406f565b925050819055503460066000600154815260200190815260200160002060010181905550600660006001548152602001908152602001600020600201339080600181540180825580915050600190039060005260206000200160009091909190916101000a81548173ffffffffffffffffffffffffffffffffffffffff021916908373ffffffffffffffffffffffffffffffffffffffff1602179055508160ff16600660006001548152602001908152602001600020600401819055506006600060015481526020019081526020016000206003018390806001815401808255809150506001900390600052602060002090602091828204019190069091909190916101000a81548160ff021916908360ff1602179055504260066000600154815260200190815260200160002060050181905550600060066000600154815260200190815260200160002060080160006101000a81548160ff021916908360ff1602179055508260076000600154815260200190815260200160002060003373ffffffffffffffffffffffffffffffffffffffff1673ffffffffffffffffffffffffffffffffffffffff16815260200190815260200160002060000160016101000a81548160ff021916908360ff160217905550600160076000600154815260200190815260200160002060003373ffffffffffffffffffffffffffffffffffffffff1673ffffffffffffffffffffffffffffffffffffffff16815260200190815260200160002060000160006101000a81548160ff021916908315150217905550600860003373ffffffffffffffffffffffffffffffffffffffff1673ffffffffffffffffffffffffffffffffffffffff16815260200190815260200160002060000160015490806001815401808255809150506001900390600052602060002001600090919091909150557fefdb129ed8c918ef2a35b5212fc80a125215c26d64b3164c17218f7b0c1e1f4a600154346040516110f09291906141d4565b60405180910390a16001600081548092919061110b90613efe565b9190505550505050565b600460029054906101000a900461ffff1681565b60606000600560035460015461113f9190613f47565b6111499190613fe6565b67ffffffffffffffff81111561116257611161613fb7565b5b6040519080825280602002602001820160405280156111905781602001602082028036833780820191505090505b50905060008060035490505b60015481101561132457600015156006600083815260200190815260200160002060000160149054906101000a900460ff1615151415611311576006600082815260200190815260200160002060010154838381518110611200576111ff614040565b5b602002602001018181525050600660008281526020019081526020016000206005015483600184611231919061406f565b8151811061124257611241614040565b5b602002602001018181525050600660008281526020019081526020016000206002018054905083600284611276919061406f565b8151811061128757611286614040565b5b60200260200101818152505080836003846112a2919061406f565b815181106112b3576112b2614040565b5b6020026020010181815250506006600082815260200190815260200160002060040154836004846112e4919061406f565b815181106112f5576112f4614040565b5b60200260200101818152505060058261130e919061406f565b91505b808061131c90613efe565b91505061119c565b50819250505090565b6007602052816000526040600020602052806000526040600020600091509150508060000160009054906101000a900460ff16908060000160019054906101000a900460ff16905082565b60011515600960003373ffffffffffffffffffffffffffffffffffffffff1673ffffffffffffffffffffffffffffffffffffffff168152602001908152602001600020600083815260200190815260200160002060000160009054906101000a900460ff1615151461141f576040517f08c379a000000000000000000000000000000000000000000000000000000000815260040161141690614249565b60405180910390fd5b60001515600960003373ffffffffffffffffffffffffffffffffffffffff1673ffffffffffffffffffffffffffffffffffffffff168152602001908152602001600020600083815260200190815260200160002060000160019054906101000a900460ff161515146114c6576040517f08c379a00000000000000000000000000000000000000000000000000000000081526004016114bd906142b5565b60405180910390fd5b6001600960003373ffffffffffffffffffffffffffffffffffffffff1673ffffffffffffffffffffffffffffffffffffffff168152602001908152602001600020600083815260200190815260200160002060000160016101000a81548160ff0219169083151502179055506000600960003373ffffffffffffffffffffffffffffffffffffffff1673ffffffffffffffffffffffffffffffffffffffff16815260200190815260200160002060008381526020019081526020016000206001015490506000612710600460009054906101000a900461ffff1661ffff16836115af9190613fe6565b6115b991906142d5565b826115c49190613f47565b9050600081836115d49190613f47565b905060003373ffffffffffffffffffffffffffffffffffffffff16836040516115fc90614337565b60006040518083038185875af1925050503d8060008114611639576040519150601f19603f3d011682016040523d82523d6000602084013e61163e565b606091505b505090506000600460069054906101000a900473ffffffffffffffffffffffffffffffffffffffff1673ffffffffffffffffffffffffffffffffffffffff168360405161168a90614337565b60006040518083038185875af1925050503d80600081146116c7576040519150601f19603f3d011682016040523d82523d6000602084013e6116cc565b606091505b505090508180156116da5750805b611719576040517f08c379a000000000000000000000000000000000000000000000000000000000815260040161171090614398565b60405180910390fd5b505050505050565b61172961359c565b6127108161ffff1610611771576040517f08c379a00000000000000000000000000000000000000000000000000000000081526004016117689061442a565b60405180910390fd5b80600460006101000a81548161ffff021916908361ffff16021790555050565b60606006600083815260200190815260200160002060030180548060200260200160405190810160405280929190818152602001828054801561181957602002820191906000526020600020906000905b82829054906101000a900460ff1660ff16815260200190600101906020826000010492830192600103820291508084116117e25790505b50505050509050919050565b61182d61359c565b601e8161ffff161015611875576040517f08c379a000000000000000000000000000000000000000000000000000000000815260040161186c906144bc565b60405180910390fd5b806004806101000a81548161ffff021916908361ffff16021790555050565b60066020528060005260406000206000915090508060000160009054906101000a900473ffffffffffffffffffffffffffffffffffffffff16908060000160149054906101000a900460ff16908060010154908060040154908060050154908060060154908060070154908060080160009054906101000a900460ff16905088565b600460069054906101000a900473ffffffffffffffffffffffffffffffffffffffff1681565b60048054906101000a900461ffff1681565b61195661359c565b611960600061361a565b565b600460009054906101000a900461ffff1681565b60008060009054906101000a900473ffffffffffffffffffffffffffffffffffffffff16905090565b6009602052816000526040600020602052806000526040600020600091509150508060000160009054906101000a900460ff16908060000160019054906101000a900460ff16908060010154905083565b6119f861359c565b600073ffffffffffffffffffffffffffffffffffffffff168173ffffffffffffffffffffffffffffffffffffffff161415611a68576040517f08c379a0000000000000000000000000000000000000000000000000000000008152600401611a5f90614528565b60405180910390fd5b80600460066101000a81548173ffffffffffffffffffffffffffffffffffffffff021916908373ffffffffffffffffffffffffffffffffffffffff16021790555050565b60006006600083815260200190815260200160002060000160009054906101000a900473ffffffffffffffffffffffffffffffffffffffff169050919050565b8060008160ff1610158015611b05575060648160ff1611155b611b44576040517f08c379a0000000000000000000000000000000000000000000000000000000008152600401611b3b90614122565b60405180910390fd5b82600460029054906101000a900461ffff1661ffff166006600083815260200190815260200160002060050154611b7b919061406f565b421115611bbd576040517f08c379a0000000000000000000000000000000000000000000000000000000008152600401611bb490614594565b60405180910390fd5b60066000858152602001908152602001600020600101543414611c15576040517f08c379a0000000000000000000000000000000000000000000000000000000008152600401611c0c90614626565b60405180910390fd5b6006600085815260200190815260200160002060000160009054906101000a900473ffffffffffffffffffffffffffffffffffffffff1673ffffffffffffffffffffffffffffffffffffffff163373ffffffffffffffffffffffffffffffffffffffff161415611cba576040517f08c379a0000000000000000000000000000000000000000000000000000000008152600401611cb1906146b8565b60405180910390fd5b600015156007600086815260200190815260200160002060003373ffffffffffffffffffffffffffffffffffffffff1673ffffffffffffffffffffffffffffffffffffffff16815260200190815260200160002060000160009054906101000a900460ff16151514611d61576040517f08c379a0000000000000000000000000000000000000000000000000000000008152600401611d5890614724565b60405180910390fd5b600060066000868152602001908152602001600020600401541480611db4575060066000858152602001908152602001600020600401546006600086815260200190815260200160002060020180549050105b611df3576040517f08c379a0000000000000000000000000000000000000000000000000000000008152600401611dea906147b6565b60405180910390fd5b34600660008681526020019081526020016000206006016000828254611e19919061406f565b9250508190555060066000858152602001908152602001600020600201339080600181540180825580915050600190039060005260206000200160009091909190916101000a81548173ffffffffffffffffffffffffffffffffffffffff021916908373ffffffffffffffffffffffffffffffffffffffff160217905550600660008581526020019081526020016000206003018390806001815401808255809150506001900390600052602060002090602091828204019190069091909190916101000a81548160ff021916908360ff160217905550826007600086815260200190815260200160002060003373ffffffffffffffffffffffffffffffffffffffff1673ffffffffffffffffffffffffffffffffffffffff16815260200190815260200160002060000160016101000a81548160ff021916908360ff16021790555060016007600086815260200190815260200160002060003373ffffffffffffffffffffffffffffffffffffffff1673ffffffffffffffffffffffffffffffffffffffff16815260200190815260200160002060000160006101000a81548160ff021916908315150217905550600860003373ffffffffffffffffffffffffffffffffffffffff1673ffffffffffffffffffffffffffffffffffffffff16815260200190815260200160002060000184908060018154018082558091505060019003906000526020600020016000909190919091505550505050565b60608060606000600660008681526020019081526020016000206002018054905067ffffffffffffffff81111561207157612070613fb7565b5b60405190808252806020026020018201604052801561209f5781602001602082028036833780820191505090505b5090506000600660008781526020019081526020016000206002018054905067ffffffffffffffff8111156120d7576120d6613fb7565b5b6040519080825280602002602001820160405280156121055781602001602082028036833780820191505090505b5090506000600660008881526020019081526020016000206002018054905067ffffffffffffffff81111561213d5761213c613fb7565b5b60405190808252806020026020018201604052801561216b5781602001602082028036833780820191505090505b50905060005b6006600089815260200190815260200160002060020180549050811015612413576006600089815260200190815260200160002060030181815481106121ba576121b9614040565b5b90600052602060002090602091828204019190069054906101000a900460ff1660ff168482815181106121f0576121ef614040565b5b60200260200101818152505060066000898152602001908152602001600020600201818154811061222457612223614040565b5b9060005260206000200160009054906101000a900473ffffffffffffffffffffffffffffffffffffffff1682828151811061226257612261614040565b5b602002602001019073ffffffffffffffffffffffffffffffffffffffff16908173ffffffffffffffffffffffffffffffffffffffff168152505060008060005b600660008c8152602001908152602001600020600a018054905081101561237e578484815181106122d6576122d5614040565b5b602002602001015173ffffffffffffffffffffffffffffffffffffffff16600660008d8152602001908152602001600020600a01828154811061231c5761231b614040565b5b9060005260206000200160009054906101000a900473ffffffffffffffffffffffffffffffffffffffff1673ffffffffffffffffffffffffffffffffffffffff16141561236b57600192508091505b808061237690613efe565b9150506122a2565b5081156123dc57600660008b815260200190815260200160002060090181815481106123ad576123ac614040565b5b90600052602060002001548584815181106123cb576123ca614040565b5b6020026020010181815250506123fe565b60008584815181106123f1576123f0614040565b5b6020026020010181815250505b5050808061240b90613efe565b915050612171565b508181849550955095505050509193909250565b600015156006600083815260200190815260200160002060000160149054906101000a900460ff16151514612491576040517f08c379a000000000000000000000000000000000000000000000000000000000815260040161248890614822565b60405180910390fd5b600460029054906101000a900461ffff1661ffff1660066000838152602001908152602001600020600501546124c7919061406f565b4211612508576040517f08c379a00000000000000000000000000000000000000000000000000000000081526004016124ff906148b4565b60405180910390fd5b600115156007600083815260200190815260200160002060003373ffffffffffffffffffffffffffffffffffffffff1673ffffffffffffffffffffffffffffffffffffffff16815260200190815260200160002060000160009054906101000a900460ff161515146125af576040517f08c379a00000000000000000000000000000000000000000000000000000000081526004016125a690614946565b60405180910390fd5b60016006600083815260200190815260200160002060020180549050141561277a576001600960003373ffffffffffffffffffffffffffffffffffffffff1673ffffffffffffffffffffffffffffffffffffffff168152602001908152602001600020600083815260200190815260200160002060000160006101000a81548160ff0219169083151502179055506006600082815260200190815260200160002060060154600960003373ffffffffffffffffffffffffffffffffffffffff1673ffffffffffffffffffffffffffffffffffffffff16815260200190815260200160002060008381526020019081526020016000206001018190555060066000828152602001908152602001600020600a01339080600181540180825580915050600190039060005260206000200160009091909190916101000a81548173ffffffffffffffffffffffffffffffffffffffff021916908373ffffffffffffffffffffffffffffffffffffffff160217905550600660008281526020019081526020016000206009016006600083815260200190815260200160002060060154908060018154018082558091505060019003906000526020600020016000909190919091505561339f565b60006127846105fa565b9050806006600084815260200190815260200160002060080160006101000a81548160ff021916908360ff1602179055506000600660008481526020019081526020016000206002018054905067ffffffffffffffff8111156127ea576127e9613fb7565b5b6040519080825280602002602001820160405280156128185781602001602082028036833780820191505090505b5090506000600660008581526020019081526020016000206003018054905067ffffffffffffffff8111156128505761284f613fb7565b5b60405190808252806020026020018201604052801561287e5781602001602082028036833780820191505090505b5090506006600085815260200190815260200160002060020180548060200260200160405190810160405280929190818152602001828054801561291757602002820191906000526020600020905b8160009054906101000a900473ffffffffffffffffffffffffffffffffffffffff1673ffffffffffffffffffffffffffffffffffffffff16815260200190600101908083116128cd575b50505050509150600660008581526020019081526020016000206003018054806020026020016040519081016040528092919081815260200182805480156129a457602002820191906000526020600020906000905b82829054906101000a900460ff1660ff168152602001906001019060208260000104928301926001038202915080841161296d5790505b505050505090506000815167ffffffffffffffff8111156129c8576129c7613fb7565b5b6040519080825280602002602001820160405280156129f65781602001602082028036833780820191505090505b50905060005b8351811015612b37578460ff16838281518110612a1c57612a1b614040565b5b602002602001015160ff161115612a7f5784838281518110612a4157612a40614040565b5b6020026020010151612a539190614966565b828281518110612a6657612a65614040565b5b602002602001019060ff16908160ff1681525050612b24565b8460ff16838281518110612a9657612a95614040565b5b602002602001015160ff161015612af957828181518110612aba57612ab9614040565b5b602002602001015185612acd9190614966565b828281518110612ae057612adf614040565b5b602002602001019060ff16908160ff1681525050612b23565b6000828281518110612b0e57612b0d614040565b5b602002602001019060ff16908160ff16815250505b5b8080612b2f90613efe565b9150506129fc565b50600060038251612b4891906142d5565b90506000811415612b5857600190505b60008167ffffffffffffffff811115612b7457612b73613fb7565b5b604051908082528060200260200182016040528015612ba25781602001602082028036833780820191505090505b50905060008267ffffffffffffffff811115612bc157612bc0613fb7565b5b604051908082528060200260200182016040528015612bef5781602001602082028036833780820191505090505b50905060005b83811015612d4e57600060649050600080600090505b88518160ff161015612c79578260ff16888260ff1681518110612c3157612c30614040565b5b602002602001015160ff161015612c6657809150878160ff1681518110612c5b57612c5a614040565b5b602002602001015192505b8080612c719061499a565b915050612c0b565b506064878260ff1681518110612c9257612c91614040565b5b602002602001019060ff16908160ff168152505080858481518110612cba57612cb9614040565b5b602002602001019060ff16908160ff1681525050888160ff1681518110612ce457612ce3614040565b5b6020026020010151848481518110612cff57612cfe614040565b5b602002602001019073ffffffffffffffffffffffffffffffffffffffff16908173ffffffffffffffffffffffffffffffffffffffff168152505050508080612d4690613efe565b915050612bf5565b5060018311156131a1576000600660008a81526020019081526020016000206006015490506000600390506000600290505b8351811015612db7576001600283612d9891906149c4565b612da291906149ff565b91508080612daf90613efe565b915050612d80565b5060008160ff1683612dc991906142d5565b9050600060018551612ddb9190613f47565b90505b6000811115612fcf578160096000878481518110612dff57612dfe614040565b5b602002602001015173ffffffffffffffffffffffffffffffffffffffff1673ffffffffffffffffffffffffffffffffffffffff16815260200190815260200160002060008e815260200190815260200160002060010181905550600160096000878481518110612e7257612e71614040565b5b602002602001015173ffffffffffffffffffffffffffffffffffffffff1673ffffffffffffffffffffffffffffffffffffffff16815260200190815260200160002060008e815260200190815260200160002060000160006101000a81548160ff021916908315150217905550600660008d8152602001908152602001600020600901829080600181540180825580915050600190039060005260206000200160009091909190915055600660008d8152602001908152602001600020600a01858281518110612f4557612f44614040565b5b60200260200101519080600181540180825580915050600190039060005260206000200160009091909190916101000a81548173ffffffffffffffffffffffffffffffffffffffff021916908373ffffffffffffffffffffffffffffffffffffffff160217905550600282612fba9190613fe6565b91508080612fc790614a36565b915050612dde565b50806009600086600081518110612fe957612fe8614040565b5b602002602001015173ffffffffffffffffffffffffffffffffffffffff1673ffffffffffffffffffffffffffffffffffffffff16815260200190815260200160002060008d8152602001908152602001600020600101819055506001600960008660008151811061305d5761305c614040565b5b602002602001015173ffffffffffffffffffffffffffffffffffffffff1673ffffffffffffffffffffffffffffffffffffffff16815260200190815260200160002060008d815260200190815260200160002060000160006101000a81548160ff021916908315150217905550600660008c8152602001908152602001600020600901819080600181540180825580915050600190039060005260206000200160009091909190915055600660008c8152602001908152602001600020600a018460008151811061313157613130614040565b5b60200260200101519080600181540180825580915050600190039060005260206000200160009091909190916101000a81548173ffffffffffffffffffffffffffffffffffffffff021916908373ffffffffffffffffffffffffffffffffffffffff160217905550505050613397565b600160096000836000815181106131bb576131ba614040565b5b602002602001015173ffffffffffffffffffffffffffffffffffffffff1673ffffffffffffffffffffffffffffffffffffffff16815260200190815260200160002060008a815260200190815260200160002060000160006101000a81548160ff0219169083151502179055506006600089815260200190815260200160002060060154600960008360008151811061325757613256614040565b5b602002602001015173ffffffffffffffffffffffffffffffffffffffff1673ffffffffffffffffffffffffffffffffffffffff16815260200190815260200160002060008a81526020019081526020016000206001018190555060066000898152602001908152602001600020600901600660008a815260200190815260200160002060060154908060018154018082558091505060019003906000526020600020016000909190919091505560066000898152602001908152602001600020600a018160008151811061332e5761332d614040565b5b60200260200101519080600181540180825580915050600190039060005260206000200160009091909190916101000a81548173ffffffffffffffffffffffffffffffffffffffff021916908373ffffffffffffffffffffffffffffffffffffffff1602179055505b505050505050505b60016006600083815260200190815260200160002060000160146101000a81548160ff021916908315150217905550806003819055507f3e9fed5538947ce96981fb9097e840f5c8d821344c446fe2409e2b8eb1efb08f8160066000848152602001908152602001600020600a016006600085815260200190815260200160002060090160405161343293929190614c15565b60405180910390a150565b60006007600084815260200190815260200160002060008373ffffffffffffffffffffffffffffffffffffffff1673ffffffffffffffffffffffffffffffffffffffff16815260200190815260200160002060000160019054906101000a900460ff16905092915050565b6134b061359c565b60008161ffff1614156134f8576040517f08c379a00000000000000000000000000000000000000000000000000000000081526004016134ef90614ca6565b60405180910390fd5b80600460026101000a81548161ffff021916908361ffff16021790555050565b61352061359c565b600073ffffffffffffffffffffffffffffffffffffffff168173ffffffffffffffffffffffffffffffffffffffff161415613590576040517f08c379a000000000000000000000000000000000000000000000000000000000815260040161358790614d38565b60405180910390fd5b6135998161361a565b50565b6135a46136de565b73ffffffffffffffffffffffffffffffffffffffff166135c2611976565b73ffffffffffffffffffffffffffffffffffffffff1614613618576040517f08c379a000000000000000000000000000000000000000000000000000000000815260040161360f90614da4565b60405180910390fd5b565b60008060009054906101000a900473ffffffffffffffffffffffffffffffffffffffff169050816000806101000a81548173ffffffffffffffffffffffffffffffffffffffff021916908373ffffffffffffffffffffffffffffffffffffffff1602179055508173ffffffffffffffffffffffffffffffffffffffff168173ffffffffffffffffffffffffffffffffffffffff167f8be0079c531659141344cd1fd0a4f28419497f9722a3daafe3b4186f6b6457e060405160405180910390a35050565b600033905090565b600060ff82169050919050565b6136fc816136e6565b82525050565b600060208201905061371760008301846136f3565b92915050565b600080fd5b600073ffffffffffffffffffffffffffffffffffffffff82169050919050565b600061374d82613722565b9050919050565b61375d81613742565b811461376857600080fd5b50565b60008135905061377a81613754565b92915050565b6000602082840312156137965761379561371d565b5b60006137a48482850161376b565b91505092915050565b600081519050919050565b600082825260208201905092915050565b6000819050602082019050919050565b6000819050919050565b6137ec816137d9565b82525050565b60006137fe83836137e3565b60208301905092915050565b6000602082019050919050565b6000613822826137ad565b61382c81856137b8565b9350613837836137c9565b8060005b8381101561386857815161384f88826137f2565b975061385a8361380a565b92505060018101905061383b565b5085935050505092915050565b6000602082019050818103600083015261388f8184613817565b905092915050565b6138a0816136e6565b81146138ab57600080fd5b50565b6000813590506138bd81613897565b92915050565b600080604083850312156138da576138d961371d565b5b60006138e8858286016138ae565b92505060206138f9858286016138ae565b9150509250929050565b600061ffff82169050919050565b61391a81613903565b82525050565b60006020820190506139356000830184613911565b92915050565b613944816137d9565b811461394f57600080fd5b50565b6000813590506139618161393b565b92915050565b6000806040838503121561397e5761397d61371d565b5b600061398c85828601613952565b925050602061399d8582860161376b565b9150509250929050565b60008115159050919050565b6139bc816139a7565b82525050565b60006040820190506139d760008301856139b3565b6139e460208301846136f3565b9392505050565b600060208284031215613a0157613a0061371d565b5b6000613a0f84828501613952565b91505092915050565b613a2181613903565b8114613a2c57600080fd5b50565b600081359050613a3e81613a18565b92915050565b600060208284031215613a5a57613a5961371d565b5b6000613a6884828501613a2f565b91505092915050565b600081519050919050565b600082825260208201905092915050565b6000819050602082019050919050565b613aa6816136e6565b82525050565b6000613ab88383613a9d565b60208301905092915050565b6000602082019050919050565b6000613adc82613a71565b613ae68185613a7c565b9350613af183613a8d565b8060005b83811015613b22578151613b098882613aac565b9750613b1483613ac4565b925050600181019050613af5565b5085935050505092915050565b60006020820190508181036000830152613b498184613ad1565b905092915050565b613b5a81613742565b82525050565b613b69816137d9565b82525050565b600061010082019050613b85600083018b613b51565b613b92602083018a6139b3565b613b9f6040830189613b60565b613bac6060830188613b60565b613bb96080830187613b60565b613bc660a0830186613b60565b613bd360c0830185613b60565b613be060e08301846136f3565b9998505050505050505050565b6000602082019050613c026000830184613b51565b92915050565b60008060408385031215613c1f57613c1e61371d565b5b6000613c2d8582860161376b565b9250506020613c3e85828601613952565b9150509250929050565b6000606082019050613c5d60008301866139b3565b613c6a60208301856139b3565b613c776040830184613b60565b949350505050565b60008060408385031215613c9657613c9561371d565b5b6000613ca485828601613952565b9250506020613cb5858286016138ae565b9150509250929050565b600081519050919050565b600082825260208201905092915050565b6000819050602082019050919050565b613cf481613742565b82525050565b6000613d068383613ceb565b60208301905092915050565b6000602082019050919050565b6000613d2a82613cbf565b613d348185613cca565b9350613d3f83613cdb565b8060005b83811015613d70578151613d578882613cfa565b9750613d6283613d12565b925050600181019050613d43565b5085935050505092915050565b60006060820190508181036000830152613d978186613817565b90508181036020830152613dab8185613d1f565b90508181036040830152613dbf8184613817565b9050949350505050565b6000819050919050565b613de4613ddf826137d9565b613dc9565b82525050565b60008160601b9050919050565b6000613e0282613dea565b9050919050565b6000613e1482613df7565b9050919050565b613e2c613e2782613742565b613e09565b82525050565b6000613e3e8286613dd3565b602082019150613e4e8285613e1b565b601482019150613e5e8284613dd3565b602082019150819050949350505050565b7f4e487b7100000000000000000000000000000000000000000000000000000000600052601260045260246000fd5b6000613ea9826137d9565b9150613eb4836137d9565b925082613ec457613ec3613e6f565b5b828206905092915050565b7f4e487b7100000000000000000000000000000000000000000000000000000000600052601160045260246000fd5b6000613f09826137d9565b91507fffffffffffffffffffffffffffffffffffffffffffffffffffffffffffffffff821415613f3c57613f3b613ecf565b5b600182019050919050565b6000613f52826137d9565b9150613f5d836137d9565b925082821015613f7057613f6f613ecf565b5b828203905092915050565b6000613f8682613903565b9150613f9183613903565b92508161ffff0483118215151615613fac57613fab613ecf565b5b828202905092915050565b7f4e487b7100000000000000000000000000000000000000000000000000000000600052604160045260246000fd5b6000613ff1826137d9565b9150613ffc836137d9565b9250817fffffffffffffffffffffffffffffffffffffffffffffffffffffffffffffffff048311821515161561403557614034613ecf565b5b828202905092915050565b7f4e487b7100000000000000000000000000000000000000000000000000000000600052603260045260246000fd5b600061407a826137d9565b9150614085836137d9565b9250827fffffffffffffffffffffffffffffffffffffffffffffffffffffffffffffffff038211156140ba576140b9613ecf565b5b828201905092915050565b600082825260208201905092915050565b7f43686f6f7365206e756d626572206265747765656e203020616e642031303000600082015250565b600061410c601f836140c5565b9150614117826140d6565b602082019050919050565b6000602082019050818103600083015261413b816140ff565b9050919050565b7f467265652067616d657320617265206e6f7420737570706f727465642068657260008201527f6521000000000000000000000000000000000000000000000000000000000000602082015250565b600061419e6022836140c5565b91506141a982614142565b604082019050919050565b600060208201905081810360008301526141cd81614191565b9050919050565b60006040820190506141e96000830185613b60565b6141f66020830184613b60565b9392505050565b7f596f7520617265206e6f7420612077696e6e6572206f66207468652067616d65600082015250565b60006142336020836140c5565b915061423e826141fd565b602082019050919050565b6000602082019050818103600083015261426281614226565b9050919050565b7f5072697a6520697320636c61696d656420616c72656164790000000000000000600082015250565b600061429f6018836140c5565b91506142aa82614269565b602082019050919050565b600060208201905081810360008301526142ce81614292565b9050919050565b60006142e0826137d9565b91506142eb836137d9565b9250826142fb576142fa613e6f565b5b828204905092915050565b600081905092915050565b50565b6000614321600083614306565b915061432c82614311565b600082019050919050565b600061434282614314565b9150819050919050565b7f5472616e7366657273206e6f7420737563636573730000000000000000000000600082015250565b60006143826015836140c5565b915061438d8261434c565b602082019050919050565b600060208201905081810360008301526143b181614375565b9050919050565b7f4e6577206665652070657263656e74206973206c657373207468616e2031303060008201527f3030000000000000000000000000000000000000000000000000000000000000602082015250565b60006144146022836140c5565b915061441f826143b8565b604082019050919050565b6000602082019050818103600083015261444381614407565b9050919050565b7f5573657247616d6573546f52657475726e4e756d626572206861766520746f2060008201527f6265206d6f7265207468616e2033300000000000000000000000000000000000602082015250565b60006144a6602f836140c5565b91506144b18261444a565b604082019050919050565b600060208201905081810360008301526144d581614499565b9050919050565b7f4e65772057616c6c657420697320616464726573732830290000000000000000600082015250565b60006145126018836140c5565b915061451d826144dc565b602082019050919050565b6000602082019050818103600083015261454181614505565b9050919050565b7f5468652067616d652069732066696e6973686564000000000000000000000000600082015250565b600061457e6014836140c5565b915061458982614548565b602082019050919050565b600060208201905081810360008301526145ad81614571565b9050919050565b7f56616c7565206f6620746865207472616e73616374696f6e2073686f756c642060008201527f626520657175616c20746f207468652067616d65000000000000000000000000602082015250565b60006146106034836140c5565b915061461b826145b4565b604082019050919050565b6000602082019050818103600083015261463f81614603565b9050919050565b7f4f776e657220697320616c726561647920696e207061727469636970616e747360008201527f206c697374000000000000000000000000000000000000000000000000000000602082015250565b60006146a26025836140c5565b91506146ad82614646565b604082019050919050565b600060208201905081810360008301526146d181614695565b9050919050565b7f596f752063616e206e6f74206a6f696e20747769636500000000000000000000600082015250565b600061470e6016836140c5565b9150614719826146d8565b602082019050919050565b6000602082019050818103600083015261473d81614701565b9050919050565b7f5061727469636970616e7473206c696d697420686173206265656e207265616360008201527f6865640000000000000000000000000000000000000000000000000000000000602082015250565b60006147a06023836140c5565b91506147ab82614744565b604082019050919050565b600060208201905081810360008301526147cf81614793565b9050919050565b7f5468652067616d652069732066696e697368656420616c726561647900000000600082015250565b600061480c601c836140c5565b9150614817826147d6565b602082019050919050565b6000602082019050818103600083015261483b816147ff565b9050919050565b7f596f752063616e2066696e69736820612067616d65206f6e6c7920616674657260008201527f20657861637420706572696f6400000000000000000000000000000000000000602082015250565b600061489e602d836140c5565b91506148a982614842565b604082019050919050565b600060208201905081810360008301526148cd81614891565b9050919050565b7f4f6e6c79207061727469636970616e74732063616e2066696e6973682061206760008201527f616d650000000000000000000000000000000000000000000000000000000000602082015250565b60006149306023836140c5565b915061493b826148d4565b604082019050919050565b6000602082019050818103600083015261495f81614923565b9050919050565b6000614971826136e6565b915061497c836136e6565b92508282101561498f5761498e613ecf565b5b828203905092915050565b60006149a5826136e6565b915060ff8214156149b9576149b8613ecf565b5b600182019050919050565b60006149cf826136e6565b91506149da836136e6565b92508160ff04831182151516156149f4576149f3613ecf565b5b828202905092915050565b6000614a0a826136e6565b9150614a15836136e6565b92508260ff03821115614a2b57614a2a613ecf565b5b828201905092915050565b6000614a41826137d9565b91506000821415614a5557614a54613ecf565b5b600182039050919050565b600081549050919050565b60008190508160005260206000209050919050565b60008160001c9050919050565b600073ffffffffffffffffffffffffffffffffffffffff82169050919050565b6000614ac0614abb83614a80565b614a8d565b9050919050565b6000614ad38254614aad565b9050919050565b6000600182019050919050565b6000614af282614a60565b614afc8185613cca565b9350614b0783614a6b565b8060005b83811015614b3f57614b1c82614ac7565b614b268882613cfa565b9750614b3183614ada565b925050600181019050614b0b565b5085935050505092915050565b600081549050919050565b60008190508160005260206000209050919050565b6000819050919050565b6000614b89614b8483614a80565b614b6c565b9050919050565b6000614b9c8254614b76565b9050919050565b6000600182019050919050565b6000614bbb82614b4c565b614bc581856137b8565b9350614bd083614b57565b8060005b83811015614c0857614be582614b90565b614bef88826137f2565b9750614bfa83614ba3565b925050600181019050614bd4565b5085935050505092915050565b6000606082019050614c2a6000830186613b60565b8181036020830152614c3c8185614ae7565b90508181036040830152614c508184614bb0565b9050949350505050565b7f54696d6520746f2066696e69736820697320657175616c20746f203000000000600082015250565b6000614c90601c836140c5565b9150614c9b82614c5a565b602082019050919050565b60006020820190508181036000830152614cbf81614c83565b9050919050565b7f4f776e61626c653a206e6577206f776e657220697320746865207a65726f206160008201527f6464726573730000000000000000000000000000000000000000000000000000602082015250565b6000614d226026836140c5565b9150614d2d82614cc6565b604082019050919050565b60006020820190508181036000830152614d5181614d15565b9050919050565b7f4f776e61626c653a2063616c6c6572206973206e6f7420746865206f776e6572600082015250565b6000614d8e6020836140c5565b9150614d9982614d58565b602082019050919050565b60006020820190508181036000830152614dbd81614d81565b905091905056fea2646970667358221220925b3afeb6985f3d29a5bf77d41d0d4b3ee363814b503a5ce7efd714ea69293b64736f6c634300080b0033",
  "linkReferences": {},
  "deployedLinkReferences": {}
}